{
  "contractName": "TodoList",
  "abi": [
    {
      "constant": true,
      "inputs": [],
      "name": "taskCount",
      "outputs": [
        {
          "internalType": "uint256",
          "name": "",
          "type": "uint256"
        }
      ],
      "payable": false,
      "stateMutability": "view",
      "type": "function"
    }
  ],
  "bytecode": "0x608060405260008055348015601357600080fd5b506084806100226000396000f3fe6080604052348015600f57600080fd5b506004361060285760003560e01c8063b6cb58a514602d575b600080fd5b60336049565b6040518082815260200191505060405180910390f35b6000548156fea265627a7a7231582090fa2eb57ad909fb080f6dfac7c4630b54ad5c4a5587e9a3f8ac51329bc9ad3364736f6c63430005100032",
  "source": "pragma solidity ^0.5.0;\n\ncontract TodoList{\n    uint public taskCount=0;\n}",
  "sourcePath": "/home/codecrunch/Videos/smartContract/Blockchain-todo-app/contracts/TodoList.sol",
  "compiler": {
    "name": "solc",
    "version": "0.5.16+commit.9c3226ce.Emscripten.clang"
  },
  "schemaVersion": "3.4.0",
  "updatedAt": "2021-05-04T17:49:43.779Z",
  "networkType": "ethereum",
  "devdoc": {
    "methods": {}
  },
  "userdoc": {
    "methods": {}
  }
}